:020000041000EA
:10000000002008205D0100101301001015010010F0
:100010001101001011010010110100101101001058
:10002000110100101101001011010010AD9A001013
:1000300011010010110100102D9A00107597001089
:100040001D0100101D0100101D0100101D010010F8
:100050001D0100101D0100101D0100101D010010E8
:100060001D0100101D0100101D0100101D010010D8
:100070001D0100101D0100101D0100101D010010C8
:100080001D0100101D0100101D0100101D010010B8
:100090001D0100101D0100101D0100101D010010A8
:1000A0001D0100101D0100101D0100101D01001098
:1000B0001D0100101D0100101D0100101D01001088
:1000C0001D0100101D0100101D0100101D01001078
:1000D0001D0100101D0100101D0100101D01001068
:1000E0001D0100101D0100101D0100101D01001058
:1000F0001D0100101D0100101D0100101D01001048
:100100001D0100101D0100101D0100101D01001037
:1001100000BE00BE00BE00BE00BE00BEEFF3058004
:10012000103800BEF2EB887138B200105CB20010DB
:10013000A801001090A31AE7D3DEFFFF42012110AF
:10014000FF0100001CCB0000793512AB4FF000001E
:100150002049086006C881F3088810474FF05040D6
:10016000006810B14FF00000F2E70FA40ECC002998
:1001700002D000F015F8F9E71749184A002000E00E
:1001800001C19142FCD1002080F30A8814498847BC
:10019000144988471449884700BEFDE701C901C2D8
:1001A0009A42FBD3704700BF5CB2001010010020E0
:1001B000081B002054CC001000000820000008207C
:1001C00054CC00100010082000100820000000008F
:1001D0007047000008ED00E0081B0020082B0020FD
:1001E00055490010791400104D490010F8B500BFB2
:1001F000064B0749C91A891048BF0131491003D07D
:10020000044B0BB101481847704700BF081B002082
:10021000081B00200000000008B5054B1BB1054974
:100220000548AFF30080BDE80840FFF7E1BF00BF1D
:1002300000000000242900206CAC00102DE9F043E0
:10024000044683B002F0F6FB00250C2C06460F4650
:1002500000952DD00A2C0DD14FF050435C6814F45A
:1002600080644FD13D4D2B7803F0FF02002B5CD111
:100270002A701AE0092C18D102F0DCFB44F6216741
:10028000374E019534687268041B61EB0202BC4270
:1002900072F1000203460D463AD2009B2BB14FF09B
:1002A000E0234FF08052C3F8042D03B0BDE8F08383
:1002B0004FF050425368526813F480531DD0294CBC
:1002C00023786BBB42F2117C274DD5E90089B0EB56
:1002D000080061EB0903604573F1000320D31305A7
:1002E00054BF224B224B69461868C5E9006707F0E6
:1002F000F3FD0122009B2270D0E71A4A137003B06D
:10030000BDE8F0830122154B1A7003B0BDE8F083FD
:10031000184A01A91068C6E9003507F0DDFDBCE701
:100320000123237003B0BDE8F08346F2A9101249FF
:10033000D1E90089B6EB080267EB0903824273F149
:10034000000301D22C70B0E70C4BC1E900671868BC
:10035000694607F0C1FD009B2C709FE7FC1400204C
:10036000981C0020FD140020901C00203C1D002043
:10037000401D00202C1D0020A01C0020301D00204E
:100380002DE9F04F2DED048BDFED3E8A9FED3E8A87
:10039000DFED3E9A9FED3E9ADFF80C813D4C85B033
:1003A0004FF0FF31D8F8000007F010FF0128F7D117
:1003B000002300261A461946D8F8000007F018FC5A
:1003C0000A254FF00409B246DFF8E0B0324F226848
:1003D00002F47042CBF80020C7F800902268D205E2
:1003E000FCD56168226816FA81F682F4805202F424
:1003F0007042CBF80020C7F800902268D305FCD5E6
:1004000062680120013D1AFA82FA08F0D3FC15F067
:10041000FF05DCD1214BF2EE045AA3FB0626C6F3FE
:10042000CF0607EE906AF8EEE77AA3FB0A3ACAF322
:10043000CF0A67EEA87A07EE10AAC7EE886AB8EE70
:10044000C77A66EEA97A27EE287A9FED155A87EECD
:10045000086A87EEA57A66EE056ACDED037A67EE47
:10046000097A10482B464FF0FF3201A90068CDED04
:10047000026ACDED017A07F0BBFB0A2008F09AFC76
:100480008EE700BF3333534000F07F457CF0413F9F
:1004900000007A4400000A4000200A40CDCCCCCCB9
:1004A0002FBA6840241D0020341D002000100A408F
:1004B0004FF0000880B50D4C0D4D0E4F0E4E4FF015
:1004C000FF31206807F082FE0128F8D12B7807EB76
:1004D00083035B6933602B780133DBB22B702B789D
:1004E000022BECD985F80080E9E700BF381D002019
:1004F000022B0020A81C0020281D00202DE9F04F11
:100500002DED088B4FF0000B9FEDC18AA3B09FED3E
:10051000C1AADFEDC19A9FEDC1BAF0EE48AAD94653
:10052000DA46BF4FDFF83083BE4ECDF80CB0E6E0C0
:1005300098ED007A9DED076AB8EE477AF2EE046A0C
:10054000C6EE077A67EEA67A9DED087A77EEC77A4F
:1005500027EE8A7AF0EE476AB1EE046AE8EE296A7D
:10056000F4EEC66AF1EE10FA40F3D880F5EEC07AE8
:10057000F1EE10FA40F3DD80F1EE046AB4EEE68AA3
:10058000F1EE10FAF9EE047A36FE888AB4EEE78AC4
:10059000F1EE10FA48BFB0EE678AF0EE477AE8EE67
:1005A000297AF5EEC07AF1EE10FA00F1C780F4EE88
:1005B000E67AF1EE10FA76FEA76A9B4800234FF028
:1005C000FF3205A90068CDED056A07F011FB08F0C0
:1005D00033FC3369A0EB09029A42054680F0B180F2
:1005E000DDED078A96ED007AD6ED027AF4EEC78A41
:1005F0009DED069AF1EE10FAF4EEE78AD6ED017A57
:10060000CCBF01240024F1EE10FAB4EEE79AD6ED47
:10061000037A48BF44F00404F1EE10FAB4EEE79A0E
:10062000C8BF44F00204F1EE10FA48BF44F00804D9
:1006300014F0030318BF0123082243EC402004F008
:100640000C03003B18BF0123072243EC4020002C81
:1006500072D0BBF1000F7FD0A5EB0B03B3F5FA6F9F
:100660000FD3D8F8003063B1F7EE007AF4EEE78AE2
:10067000F1EE10FA05DD41F28733039AAA1A9A4285
:100680006CD8A5EB0A03B3F5FA7F35D3039BEB1ABD
:10069000B3F57A7F30D30021084607F0F5F915212C
:1006A000624B634A0DA804F00BF9D8F80030614A98
:1006B00015210DF1490004F003F907980AF08CFAAE
:1006C0005D4ACDE9000115210DF15E0004F0F8F856
:1006D000DDED067AFDEEE77A152117EE903A574ADE
:1006E0000DF1730004F0ECF8002355481A46006839
:1006F0000DA907F07DFAAA460A2008F05BFB00224C
:10070000386806A907F01EFC0128F5D1D8F800309A
:10071000002B7FF40DAFF0EE6A7A15E7F5EEC06AB4
:10072000F1EE10FA05D5F5EEC07AF1EE10FA3FF5CC
:1007300023AFA7EE8B8A1FE7A346A2E7F0EE6A6A13
:100740003BE700233F4A194610681A4607F050FA63
:100750009FED2F8AA94643E7AB4692E701238DF828
:100760002430394B6421186807F030FD01283CD053
:10077000E0072ED4A1071FD4620710D4230701D4A9
:100780000395B9E70023032230488DF8252009A9F5
:100790001A4600688DED0C9A07F02AFAF0E700235C
:1007A00002222A488DF8252009A91A460068CDEDB5
:1007B0000C8A07F01DFAE1E70023012223488DF897
:1007C000252009A91A4600688DED0C9A07F010FA49
:1007D000D2E700231D4A09A910681A46CDED0C8AFC
:1007E0008DF8253007F004FAC4E71949194809F0D3
:1007F000CFFA0023174A03CACDF826001248CDF8D5
:100800002A101A461946006807F0F2F9B0E700BF4F
:1008100000000000CDCCEC3F7B144E40CDCCCC3D55
:10082000241D0020A81C0020181D002070AC001002
:1008300084AC00108CAC00109CAC0010B0AC00106C
:10084000201D0020381D0020441D00201C1D0020FC
:10085000042A0020FC240020281D002000B50E4C96
:100860000E4D83B04FF0FF32206801A907F06AFBFC
:100870000128F7D14FF0FF31286807F0A7FC019954
:1008800000234022064809F061FB002328681A462D
:10089000194607F0ADF9E5E7181D0020441D0020BA
:1008A000B024002000232DE9F04FCDB006AA12920B
:1008B00007AA139208AA149209AA15920BAA1792D2
:1008C0000AAA16921A46CDE90633CDE90833CDE9D6
:1008D0000A330C938DF838300D9305930CAB1893B5
:1008E0000DAB914619930392FA237822CDE91A238E
:1008F000CDE91C23782242F20F73CDE91E2342F288
:100900000F7242F20F73CDE92023DFF810A337AE48
:100910000DF188084FF0FF31DAF8000007F056FCBF
:100920000128F7D1AE4B0021186807F04FFC0022D8
:1009300015464FF0FF33042D17460493029200F33F
:100940001D81012D40F3E980042D00F0C2800723B2
:100950004FF0010242EC4030022D00F07681344627
:100960000325A04B0FCB07C423700DEB85039B6CB5
:1009700015211B689C4A0DF1F10003F0A1FF4446CC
:10098000B3468DF806918DF81B915B4620461521E4
:10099000964A153403F094FFA6420BF1150BF4D1DF
:1009A000934800234FF0FF324146006807F020F9DA
:1009B000039B6BB3042D00F22182DFE805F01603E0
:1009C00016035B00C7F10201012006F0C1FF0121FF
:1009D000084607F059F8049BBB4219D06B1E022B46
:1009E00056D8DFE803F00755070039B24900C1F1D6
:1009F0000301E9E7C7F102042146012006F0A8FF40
:100A000008F01AFA01210590084607F03DF804970E
:100A1000784B0021186807F0D9FB012800F000810D
:100A2000754B0021186807F0D1FB012800F0C48045
:100A30004FF050446368580500F19380029B002BEF
:100A400000F0AD8063685A0540F1928008F0F4F937
:100A5000059BC01AB0F57A7F80F01181632840F2BF
:100A600008817B1C042D00F2CC81DFE805F03F16E5
:100A70003F161600C7F102042146012006F068FF68
:100A80000121084607F000F8049BBB42B4D1BFE740
:100A90003CB26400C4F10304AEE70121574A0846A2
:100AA00082FB0327A7EBE37707EB4707DF1B06F083
:100AB000EBFF322008F07EF9012D00F095814FF018
:100AC000FF330120CDE903030023042D02937FF4BB
:100AD0003EAF34464A4B0FCB07C415212380494A09
:100AE0000A9B0DF1F10003F0EBFE48E70121002B1A
:100AF00003F00103B8BF5B4208461F4606F0C4FF7F
:100B0000322008F057F901244FF0FF33CDE90343B9
:100B10000023012D02933FF717AF4FF008034FF06A
:100B2000010242EC403000F09D8034460025364BF7
:100B30000FCB07C423700DEB85039B6C33491A68F8
:100B40000DF1F10081FB0231D317C3EBA10303EBDD
:100B50008301A2EB4102009215212D4A03F0B0FE61
:100B60000DE763685B0503D5029B002B7FF46EAF36
:100B7000322008F01FF9042D7FF7E3AE2B1F15215B
:100B80003046244A03F09CFE0DEB85039B6C152137
:100B9000214A1B680DF1F10003F092FEEFE608F028
:100BA0004BF96368059059053FF550AF012332209A
:100BB000029308F0FFF8DEE70DEB8503002F9A6C37
:100BC00007DD0023013300EB8000BB424FEA400009
:100BD000F8D113681B1A54BF1360C2F8009027E7BE
:100BE000341D0020F4AC00102CAD001084AC0010BB
:100BF000201D00203C1D0020401D0020565555554D
:100C000004AD001014AD0010C4AC00106766666639
:100C100020AD001034AD001040AD00102C1D0020A0
:100C20000DEB8503002F9A6C996E07DD00230133CD
:100C300000EB8000BB424FEA4000F8D11368184433
:100C40008842A8BF08461060EAE63446784B0FCBCE
:100C500007C423706FE745EC404000274FF0FF3397
:100C6000029704933446734B01250FCB07C42370BE
:100C70007BE600233220029308F09CF87BE76E4B62
:100C80006421186807F0A2FA012800F095800DEBA6
:100C9000850335F002029B6C8DF8395078D0D3ED86
:100CA000007AF8EEE77A654800234FF0FF320EA98C
:100CB0000068CDED117A06F09BFF4FF4FA6008F062
:100CC00079F808244FF0000343EC4040072243EC3E
:100CD00040203220013508F06DF8A54261D1069B15
:100CE000F2EE045A07EE903A089BB8EEE76A07EE78
:100CF000903A079BF8EEE76A07EE903A099BB8EE48
:100D0000E77A07EE903A4FF47A7286EE255AF8EEBB
:100D1000E77A86EEA56A02930A9B02FB03F3484A30
:100D200013610B9B82ED017A53610C9BC2ED037A38
:100D300093610D9B82ED005A82ED026AD36106F049
:100D400003FE404B8DF89D900FCB88E80F003E4886
:100D500000234FF0FF32414600688DF8B2908DF8C5
:100D6000C79006F045FF4FF4FA6008F023F8002121
:100D7000084606F089FE0021DAF8000007F026FA9E
:100D80000023324A194610681A4606F031FFC1E5C1
:100D900093ED007AF2EE046AB8EEC77AC7EE267ACF
:100DA00081E7042D1ADC012D3FF455AF00274FF0E9
:100DB000FF3302970493C7E52549264808F0E8FF6A
:100DC0000023244A03CACDF83A001B48CDF83E1050
:100DD0001A461946006806F00BFF58E700274FF047
:100DE000FF3302970493C9E6082345EC40304FF0E7
:100DF000FF33049300230395029333E7C7F1030401
:100E00003AE601215A42084603F0030702F00303C1
:100E100058BF5F4206F038FE322007F0CBFF4FF09C
:100E2000FF330121CDE9031300230293A6E600BF9F
:100E3000E4AC0010D4AC0010441D00201C1D0020A8
:100E4000A81C00204CAD0010201D0020341D0020E7
:100E5000042A0020FC2400202DE9F04F7E4BA7B08F
:100E600002937E4B7E4FDFF824B2DFF82492DFF846
:100E700024A2039305AC09AD0DAE4BE0BCF1000F0D
:100E800048D1BBF80030DFF804B24FF48062D84696
:100E90001033934288BFA8F800C04FF4FA71D9F814
:100EA000000007F093F9012800F0928096E80F0007
:100EB00084E80F009DF81430002B53D0012B00F074
:100EC000A280BDF81C30152101939DF81B30654AA6
:100ED00000930DF16E009DF8193003F0F1FC9DF8C0
:100EE0001830152101939DF817305F4A00930DF1DA
:100EF00083009DF8163003F0E3FC06F025FD002387
:100F00004FF0FF32DAF8000011A906F071FE0A2056
:100F100007F050FF4FF0FF322146386807F012F813
:100F20000128F4D194E80F009DF814C085E80F0063
:100F3000BCF1010F0CD0BCF1020F9FD1039B4749BC
:100F40004FF480524FF4006C88461B8803919FE752
:100F5000029B41494FF400624FF4806C88461B8825
:100F6000029195E7009315219DF815303F4A11A88D
:100F700003F0A6FC9DF81530DDED087A042B60D84F
:100F8000DFE803F00E030E031B00FDEEE77A1521E8
:100F900017EE903A364A0DF1590003F091FC90E7B4
:100FA00017EE900A09F018FE324ACDE9000115212A
:100FB0000DF1590003F084FC83E7FDEEE77A15217B
:100FC00017EE903A2C4A0DF1590003F079FC78E7BE
:100FD00010232A46B8F80010284808F0CBFD10234B
:100FE00032462648B8F8001008F0DEFD0023D9F894
:100FF00000001A46194606F0FBFDB8F80030103321
:10100000A8F8003052E71E4B15211E4A11A803F024
:1010100057FC9DF81530032B3FF653AFDFE803F084
:101020000F020F02DDED087AFDEEE77A152117EECB
:10103000903A0F4A0DF1590003F042FC41E708983D
:10104000B0E7FDEEE77A152117EE903A0E4A0DF162
:10105000590003F035FC34E7FA140020F81400209E
:101060001C1D0020B8AD0010C8AD00105CAD001014
:1010700080AD001070AD001090AD001098150020EC
:10108000B0AD001084AC0010A0AD0010FC2A002010
:10109000441D0020201D0020542230B5ABB000219B
:1010A0000DEB020009F0B6FA3B4C3C4D02E0142077
:1010B00007F080FE4FF0FF326946206806F042FFDD
:1010C0000128F4D16421286807F080F80128EED1C6
:1010D0001522694615A809F0EBFAF8B915220DF1A9
:1010E00069000DEB020109F0E3FA002843D1152253
:1010F0000DF12A010DF17E0009F0DAFA58BB152234
:101100000DF13F010DF1930009F0D2FA98B90023D7
:1011100028681A46194606F06BFDC8E70021084604
:1011200006F016FC684606F02BFC1522694615A849
:1011300009F0F8FAD2E70021032006F009FC0DF1CE
:101140003F0006F01DFC15220DF13F010DF193004B
:1011500009F0E8FADBE70021022006F0F9FB0DF1C7
:101160002A0006F00DFC15220DF12A010DF17E007A
:1011700009F0D8FAC3E70021012006F0E9FB0DF1E0
:10118000150006F0FDFB15220DF169000DEB0201C3
:1011900009F0C8FAABE700BF201D0020441D002065
:1011A0002DE9F0410C2084B000F07CFB4FF00C08DE
:1011B0004FF0000444EC448000220121404600F03E
:1011C000D5FA0B2000F06EFB0B2044EC440000220B
:1011D000012100F0CBFA0A2000F064FB0A2744EC5E
:1011E000447000220121384600F0C0FA082000F0C7
:1011F00059FB08254FF0010646EC445044EC4050A2
:10120000072000F04FFB072346EC443044EC40300D
:10121000092000F047FB092644EC446001223046D7
:10122000002100F0A3FA7A4B29460122404600F043
:10123000D5FA784C01220421384600F0ABFA01229D
:101240002946304600F0A6FA7349204606F04CFACB
:1012500006F0BCFA1F211A2000F06AFA00226F4E35
:1012600011461A2000F082FA00211A2000F00AFB31
:1012700033686B4D03F470432B601F211B2000F07B
:1012800057FA00221B20114600F070FA00211B20A3
:1012900000F0F8FA3368032183F4805303F47043B9
:1012A0002B60142000F044FA0321152000F040FACE
:1012B00000220121142000F059FA002201211520FA
:1012C00000F054FA2721204606F0E8FB15251422E9
:1012D0004FF47A7664236021CDE90156009251489B
:1012E000224608F0B9FD50494E4808F017FE40224A
:1012F00000234D494B4808F029FE68234B4D4C49CB
:1013000028460B710C6008F043FD40F2D273EA8866
:101310009A4273D900225421012006F02DFC044684
:10132000444B0022102101201C6006F025FC0446DD
:10133000414B00220C2105201C6006F01DFC0446D8
:101340003E4B0022042105201C6006F015FC0446DB
:101350003B4B0322002101201C6006F00DFC0446DB
:10136000384B0322002101201C6006F005FC0446D6
:10137000354B0322002101201C6006F0FDFB0446D2
:10138000324B0322002101201C6006F0F5FB0346CE
:101390002F4C032200210120236006F0EDFB0546BF
:1013A0002C4B0021032201201D6006F0E5FB0246C4
:1013B000294B01201A60294D06F05AFD2849294A77
:1013C0004D600A6042F210754FF07E52264E0023A7
:1013D00030602068254C0D618A60CC603222642424
:1013E00096254A61CD618C611A46194606F000FCCB
:1013F000002004B0BDE8F04107F056BB1C4A1D4B6D
:1014000028460B49C5E9002308F0E8FB82E700BF46
:101410003D02001098150020A086010000000A403F
:1014200000100A40B02400200000A040FC2400204E
:10143000042A0020201D00201C1D0020241D002047
:10144000181D00203C1D0020401D0020301D0020E4
:101450002C1D0020341D0020381D0020000070438A
:10146000A81C002000003041441D00200000404026
:101470001500000C0108E9070024052500B583B01C
:1014800003F060FBCDE90054042580222346234964
:10149000234807F087FACDE900540325802223462C
:1014A0002049214807F07EFA80222346CDE90054E6
:1014B0001E491F4807F076FACDE9005402254FF483
:1014C000807223461B491C4807F06CFACDE9005492
:1014D00001254FF4807223461849194807F062FA33
:1014E0004FF4806223461749CDE90054164807F0AF
:1014F00059FA4FF4806223461449CDE90054144848
:1015000007F050FA802223461249CDE900541248D0
:1015100007F048FA07F026FBFEE700BFD8AD001041
:10152000A1110010E0AD0010B1040010F0AD0010EA
:1015300099100010F4AD0010590E0010FCAD001011
:10154000A508001004AE0010810300100CAE0010BE
:10155000FD04001014AE00105D0800104FF0504262
:101560002DE9F84F6D4BD2F800A053F82A70BAF16C
:10157000000F2CD0DFF8B0816FB30026DFF8A0B1E8
:10158000DFF8A091F3080C3358F82350344608369E
:10159000CDB105F00F0120462D09013489B15BF86A
:1015A0002A2000F00703C2404FEAD00C9B00D2076C
:1015B00001FA03F30CF18C0C02D449F82C30B84733
:1015C0000DB1B442E5D3202EDCD1BDE8F88FDFF8B1
:1015D0005C81002FD1D15248F90801F10C0358F871
:1015E0002330002B7BD013F00F054FEA13120AD0E3
:1015F00050F82A40FC40E60703D44A4C8C3144F8AA
:101600002150002A6BD012F00F024FEA13210DD0A7
:1016100050F82A407D1CEC40E40705D4EC08414D0D
:1016200012018C3445F82420002958D011F00F0104
:101630004FEA133207D050F82A40BD1CEC40E607B1
:1016400057D5002A4BD012F00F024FEA134107D0B2
:1016500050F82A40FD1CEC40E40751D500293ED04B
:1016600011F00F014FEA135207D02D4C54F82A50B5
:101670003C1DE540EE074AD58AB312F00F024FEA4F
:1016800013610DD0264C54F82A507C1DE540ED071F
:1016900005D4244DE40812058C3445F82420F1B11A
:1016A00011F00F014FEA13731FD01D4CBD1D54F8EC
:1016B0002A20EA40D60705D4EA081A4D09068C32DA
:1016C00045F822105BB154F82A10FA1DD140C90721
:1016D00005D41449D2081B078C3241F82230083750
:1016E000202F7FF479AFBDE8F88F002BF7D00C4C9A
:1016F000E9E7EC080B4D09028C3445F82410A0E70B
:10170000EC08084D12038C3445F82420A6E7054D5B
:10171000E40809048C3445F82410ADE77024002057
:10172000F42900200080024090820240488202405A
:1017300010B44FF480740C4B53F8202003EB80035B
:10174000C00082F0400200F1804003F5805C02F0AE
:10175000C00200F5203003F54053CCF80020416072
:101760001C605DF8044B70470480034010B4084CC3
:10177000C90041EA820154F8202004EB8003514063
:1017800003F5805301F00C015DF8044B19607047BC
:10179000048003404FF050431B6893B10C4B4FEA59
:1017A000D00C00F00700800081400A4803EB8C0356
:1017B0000CF18C0C40F82C102AB103F50053196081
:1017C0007047054BEBE703F540531960704700BFC6
:1017D0009082024000800240488202402DE9F0439E
:1017E0004FF050491F46DFF89880D9F80030164670
:1017F00058F8232004460D4683B032B387B348F827
:1018000023704FF050431B68BBB1194BE10804F043
:101810000704184AA40005FA04F403EB81038C3191
:1018200042F821405EB10121152003F500531C60F0
:1018300003B0BDE8F04300F02DB90F4BE6E703F528
:1018400040531C6003B0BDE8F083002FDCD01520AE
:101850000A4948F8237000F08FF9D9F80030D3E72F
:1018600015200649019300F07BFA019BC7E700BFF2
:101870009082024000800240488202405D150010C4
:1018800070240020064B402203EB800319B103F5BE
:1018900000531A60704703F540531A60704700BF49
:1018A0000480034030B44FF0000343EC440043ECA9
:1018B000400005254FF480740B4BC20053F82010F4
:1018C00003EB800081F0400102F1804303F52033F7
:1018D00001F0C00200F5805100F540500A605D60E3
:1018E000046030BC704700BF048003400FB400B5F3
:1018F00083B0049C074803F069F93CB105A9204670
:10190000019102F0F3FF044803F060F9012003F0B5
:1019100005F800BF18AE001028AE001070B586465E
:10192000EFF3108572B6124CD4E8CF6F0120002E71
:10193000FAD1C4E8460F002EF6D1BFF35F8F4FF007
:10194000010CC80801F007030CFA03F31EF800C0ED
:101950001CEA030608D14CEA030C0EF800C0C4E8E8
:101960008F6F85F3108870BD1046FFF7BFFF00BF73
:1019700067200020F8B5EFF3108772B61C4ED6E84A
:10198000CF5F0124002DFAD1C6E8454F002DF6D1D6
:10199000BFF35F8F9A421BD8012502E001329342C8
:1019A00022D3D40810F804E002F0070C05FA0CFC6E
:1019B0001EEA0C0FF2D14EEA0C0E00F804E01046BD
:1019C0000023C6E88F3F87F31088984207DBF8BDF5
:1019D0000023C6E88F3F87F310884FF0FF300029BF
:1019E000F5D00698FFF782FF4FF0FF30E8E700BF21
:1019F00067200020044A1078431CDBB2182B28BF54
:101A000010231370704700BFFE14002010B5054C62
:101A100082B001461F23182200940348FFF7AAFF53
:101A200002B010BD2CAE0010802400204FF0E02248
:101A3000936843F000539360704700BF0021044B4C
:101A400003F12002C3E88F1F01339342FAD170479C
:101A50005C2000204FF0E0234FF08032C3F80024D8
:101A6000C3F80424C3F80824C3F80C24C3F81024D2
:101A7000C3F81424C3F81824C3F81C24C3F8202482
:101A8000C3F82424C3F82824C3F82C24C3F8302432
:101A9000704700BF012300F01F029340400941B18D
:101AA000800000F1604000F56140C0F880310360C3
:101AB0007047024A203042F82030704700E100E0D1
:101AC0000123064A410952F8212000F01F0003FAC1
:101AD00000F01040003818BF0120704700E100E01E
:101AE00001224309034900F01F008240403341F8BE
:101AF0002320704700E100E0054A10309268054B52
:101B000052F82000C01A2F288CBF002001207047F7
:101B100000ED00E000150020F8B50D46EFF310874A
:101B200072B6124ED6E8CF2F0123002AFAD1C6E8AA
:101B3000423F002AF6D1BFF35F8F0D4B00F1100436
:101B40009B680C4A53F82430934203D0994201D049
:101B500001F0FEF8064B9B6843F82450BFF35F8FFB
:101B60000023C6E88F3F87F31088F8BD652000206A
:101B700000ED00E01D0100102DE9F04F81468B467D
:101B8000164683B0EFF3108372B6DFF8D0A100934E
:101B9000DAE8CF1F01230029FAD1CAE8413F002922
:101BA000F6D1BFF35F8F664B93F90040002CC0F273
:101BB000A080644D04EB440705EB870898F80610F5
:101BC00009F110091970604BBF009B6853F8290098
:101BD0006300411B2F292FD95C49884240F0A48023
:101BE0001C445B4B02372F44043BDB1BC3F34A030B
:101BF0006FEAC3434FF421416FEAD34325F8241021
:101C000005EB840463804BF60153A380FF2348F067
:101C10000100E671C4F808B0A3714B4B9B6843F810
:101C20002900BFF35F8F0023CAE88F3F009B83F337
:101C3000108803B0BDE8F08F20F0010E9EF8071069
:101C4000B1422ED84FF42143EB53414BB91C2944E8
:101C5000043B04375B1A2F44AEF10401C91BC1F3E6
:101C60004A043C49C3F34A030B432143A8F8041038
:101C70003949A8F802304AF6AA2073465B1B5B413B
:101C80005843000D88F8076088F80600C8F808B0C7
:101C900048F00100CEF80010BFE7D179B1422ED94B
:101CA00096469EF906C00CEB4C02BCF1000F05EB0A
:101CB0008202F2DA4BF601510EF10402A8F1040798
:101CC000BF1AC7F34A076FEAC7476FEAD7478EF8CC
:101CD000064003EB0408204C05EB8803AEF80470C3
:101CE00045F82840998083F806C0DE71C3F808B033
:101CF00093E701F02DF8124B93F9004059E7724633
:101D000032F8041F490514D44915023102EB410190
:101D100001916FF00701C91B019F491B3944C1F3B1
:101D20004A0141F46041C9E7019301F011F8019BB8
:101D300056E701F5FF1101F5FF511F31E4E700BF40
:101D4000032B00200015002000ED00E01D01001015
:101D50003015002000E0FFFF01488047652000208B
:101D60002DE9F04F83B0EFF3108A72B6714ED6E8CA
:101D7000CF2F0123002AFAD1C6E8423F002AF6D12C
:101D8000BFF35F8F6C4B00F110089B686B4A53F8F0
:101D90002850954245D08D420C4650D0684FEB1BE1
:101DA0002F2B3ED801214FEA50194FEA890909F13A
:101DB000604909F5614900F01F0301FA03F0D9F801
:101DC0000030C9F8800000EA030BBFF35F8FEFF328
:101DD0000581C9B2002934D0884505D0CDE900106D
:101DE00000F0B6FFDDE9001025F0010EDEF808C0B6
:101DF000644505D189E0D3F808C0644531D09E46DA
:101E00009EF9062002EB4203002A07EB8303F2DA75
:101E1000644561D0BBF1000F20D0C9F88001C9F83A
:101E20000000454B9B6843F82850BFF35F8F0023A9
:101E3000C6E88F3F8AF3108803B0BDE8F08F1546DF
:101E4000EFE725F0010EDEF808C06445D8D19EF911
:101E500006407346002C08DA154646E0C9F88000B3
:101E6000DFE793F90640002C37DB04EB440C07EB6B
:101E70008C0C9CF80710DCF80820D9719A609CF94A
:101E800006206100002A9A713DDBBCF804E05FEA9D
:101E90004E5E05D50EF5FF1E0EF5FF5E0EF11F0E10
:101EA0006FF0070C0A194FEA6E5E920002EB4E02C9
:101EB00008323A44ACEB030C6244C2F34A026FEAC4
:101EC000C2426FEAD2429A801E4B21441A7807EB35
:101ED00081011C708A719DE77346D9B9FF228EF883
:101EE00006204BF60152AEF80420164C4AF6AA2200
:101EF00094F800C01946C91B49414A43120D83F8A2
:101F000006C0227086E7104ADDE79EF90640734658
:101F1000002CAADA0D4A0E4CD21A083AC2F30A3142
:101F20006FEA01516FEA115144EA5202DA80998056
:101F300070E700BF6520002000ED00E01D010010EB
:101F400000150020032B002001BDFFFF3A150020E3
:101F500000F8FFFFF0B5EFF30585EDB2EFF3108C5D
:101F600072B62649D1E8CF2F0123002AFAD1C1E861
:101F7000423F002AF6D1BFF35F8F214E40F0010EA1
:101F8000B4684AF6AA2354F825701E4A0446A41AD7
:101F9000644163431B0D77455BB21BD092F9064049
:101FA0009C421CD092F912409C4223D092F91E40D0
:101FB0009C4221D092F92A409C4208BF03240FD0B2
:101FC000114A0024157813708571C1E88F4F8CF386
:101FD0001088F0BDB2680D4C42F82540F0E70024AF
:101FE00004EB440402EB8402FF2494714BF6015489
:101FF0009480E5E70124F3E70224F1E7652000205F
:1020000000ED00E000150020032B00201D01001052
:1020100010B5074C82B00146052300220094054804
:10202000FFF7A8FC0028A8BFC0F1330002B010BD24
:1020300048AE0010072B0020014B0B440360704793
:102040005C20002070B5104C104DAC420ED2FF2623
:10205000236863B1FFF7CEFC01462046FFF7ECFF93
:10206000A680BFF35F8F0834AC42F1D370BDFFF799
:10207000C1FC01462046FFF7DFFF2671BFF35F8FEB
:102080000834AC42E4D370BD001B0020081B0020C4
:1020900010B50446FFF7AEFC01462046FFF7CCFF23
:1020A000FF232371BFF35F8F10BD00BF10B504463F
:1020B0000120FFF7ABFC034B03442360BFF35F8FAA
:1020C00010BD00BF5C200020024B0B440360BFF337
:1020D0005F8F70475C2000200D4B1A68EFF3108172
:1020E00072B6D2E8CFCF0120BCF1000FF9D1C2E81F
:1020F0004C0FBCF1000FF4D1BFF35F8F00221B68BF
:10210000C3E88F2F81F3108840BF00200021704763
:102110000C2A0020000000002DE9F04F2DED028B6D
:1021200085B0EFF30583DBB2103B9A0818BF01229C
:102130004FF0010103F0030B18BFAF4DAF4B08BFC9
:10214000AF4D0BEB820253F8226001FA0BF205F55A
:1021500041539FEDA78B01925A602FE0B3881C0476
:1021600040F19380B379002B40F0DD80B6F9082070
:10217000002AC0F21E81736902EB420203EBC20324
:10218000D3E90247B7F1FF3F08BFB4F1FF3F0ED0DC
:1021900005EB8B01AB6A0A69D21AE31A934205D3A5
:1021A00001232A6A03FA0BF3134200D10C6128467B
:1021B00000F038FCA042B941C0F2FB80B6F908300B
:1021C000019A002B0093EA63C8DBD6F8148003EB76
:1021D0004309284608EBC907D7E9024A00F022FC68
:1021E000A04271EB0A01B9DBBAF1000FC0F2C38063
:1021F000D7E90431834A934200F0ED807A88B6F93A
:10220000080092B242EA0040984702460B4652EA62
:10221000030100F0B080002B80F2D180B4EB020EFD
:102220006AEB030A38F93930C7E902EA002B95DB7B
:10223000716903EB430201EBC202D2E90270BE45B1
:102240007AEB000C4FEA430288DBB4462CF8083FD7
:1022500006E003EB430001EBC0005A00D0E9027036
:10226000BE451A447AEB000001EBC20404DB31F9ED
:102270003230A446002BECDA28F83930009BACF859
:102280000030B3881C043FF56DAF3369EFF3108263
:1022900072B6D3E8CF0F01210028FAD1C3E8401F5E
:1022A0000028F6D1BFF35F8F4FF6FF74B08800238C
:1022B000316900B2B480C1E88F3F82F31088984240
:1022C000FFF650AF0746A946746906F1080807EB08
:1022D000470E04EBCE03D3E90250B6F90830C446EA
:1022E000002B13DBB246009704E034F936309446F5
:1022F000002B09DB03EB430604EBC602D2E90271B3
:10230000BD4270EB0101F0DA5646009FACF8007058
:1023100034F93E7024F83E30002FD8DAB3794D46B8
:10232000002B3FF423AF0023B371B6F9083006F158
:102330000808581C3DD01A46776903E08046591CAE
:102340003FF416AF03EB430107EBC100B0F802C046
:102350001C461CF4004F9E4637F93130EED09442B3
:1023600080ED028B05D0A8F80030328927F83120A3
:1023700034817246E3E738F8393033813369EFF35B
:10238000108272B6D3E8CF0F01210028FAD1C3E83A
:10239000401F0028F6D1BFF35F8F7388316928F89A
:1023A0003930009B73800023C1E88F3F82F310888F
:1023B000D4E640BF05B0BDEC028BBDE8F08F2846E7
:1023C000CDE9022300F02EFB029A039B10EB020ED4
:1023D00043EB010A26E708460B690291984700285B
:1023E000C9D00299D1E9002311E700BFAFF3008003
:1023F000FFFFFFFFFFFFFFFF00800B40442900208D
:1024000000000B40192100102DE9F84F364C2569CA
:102410002DB1BDE8F84F0A213448FFF70DBEDFF8B3
:10242000E4800321404600F0EBFA0326C4F80C8058
:10243000FFF7E0FA4FF0504C2D4B26700344236118
:10244000DCF800300F216370636961801D834FF0F9
:102450000405A3F878504FF00505A3F890504FF00D
:102460000605A3F8A8504FF007050E214FF6FF729E
:1024700008274FF00A0EA3F8C0504FF001094FF0A3
:102480000C0C4FF0020B4FF0090A0D204FF00B051A
:10249000A3F868111749A280A3F808E1A160A3F886
:1024A00048B0A3F8F0A0A3F82051A3F838C1A3F8CE
:1024B0005001A3F83090A3F86060A3F8D8701A8098
:1024C0000D4B3046C8F820700C49DC60FFF724FB48
:1024D00049463046FFF7DEFA094B0A211F640348DC
:1024E000BDE8F84FFFF7A8BD481500200C2A0020D2
:1024F0005C200020FFFF100044290020192100105B
:1025000000200B4000000B40004870474815002099
:10251000F8B59DF82050044617461E4635B900F020
:1025200089FA874266EB010100295CDB2169EFF340
:10253000108372B6D1E8CF0F01220028FAD1C1E88A
:10254000402F0028F6D1BFF35F8FB4F902206569F0
:1025500002EB4201002A4FEAC10C206905EBC101E0
:1025600039DB35F80CE0A4F802E04FF0000EC0E8CB
:102570008FEF83F310884888069B0130C0F30E006C
:10258000012838BF01200B61079B48804B61C1E9DE
:10259000027640EA02402369EFF3108172B6D3E875
:1025A000CF7F0126002FFAD1C3E8476F002FF6D165
:1025B000BFF35F8FA38825F80C30A2802369C3E89E
:1025C0008FEF81F310880122E368217803F501532E
:1025D0008A405A60F8BD0022C0E88F2F83F310882C
:1025E0004FF0FF30F8BD2846F8BD00BF0146F0B5FA
:1025F0000069EFF3108772B6D0E8CF5F0124002D99
:10260000FAD1C0E8454F002DF6D1BFF35F8FB1F985
:1026100002E04C690EEB4E0CBEF1000F4FEACC0508
:10262000086904EBCC0C3CDB665B4E800026C0E8FE
:102630008F6F87F31088BCF80200CCE902230130C9
:10264000C0F30E00012838BF0120059BACF8020042
:10265000CCF81030069B40EA0E40CCF814300B69E1
:10266000EFF3108272B6D3E8CFCF0127BCF1000F91
:10267000F9D1C3E84C7FBCF1000FF4D1BFF35F8FF9
:102680008B886353A1F804E00B69C3E88F6F82F372
:1026900010880122CB68097803F501538A405A60FB
:1026A000F0BD0023C0E88F3F87F310884FF0FF3064
:1026B000F0BD00BF03464089B0EB214F37DD5869BC
:1026C0000A1402EB420210B500EBC2001C69EFF3E2
:1026D000108C72B6D4E8CFEF0122BEF1000FF9D111
:1026E000C4E84E2FBEF1000FF4D1BFF35F8F4288D4
:1026F00089B292B28A4207D000221B69C3E88F2FA9
:102700008CF31088002010BD42F400424280012169
:10271000002218699971C0E88F2F8CF310881C78FB
:10272000DA68084602F50153A140596010BD002047
:10273000704700BF407870472DE9F04182B00446F1
:102740000E4600F077F94FF0FF326FF00043241887
:1027500046EB0106A24273EB06013CBF14461E463F
:10276000A51F46F1FF37AC4276EB07033CBF0025BF
:102770002F4600F05FF9281A67EB010C01287CF165
:10278000000C06DA2046314602B0BDE8F04100F008
:102790005BB900F04FF9854267EB010100290ADBC4
:1027A0000021174B2A46009316483B460191FFF73C
:1027B0001DFF0130E6D04FF0000C134A1349536A55
:1027C0009F4204D8906AA842DCD29F42DAD10B68BB
:1027D000EFF3108072B6D3E8CF8F5FF0010EB8F13F
:1027E000000FF8D1C3E848EFB8F1000FF3D1BFF301
:1027F0005F8F0B68C3E88FCF80F3108820BFDEE7C0
:10280000D92000104815002000000B400C2A0020A1
:102810002DE9F04182B0064600F00CF94FF47A73CE
:1028200004464FF0FF306FF00042E6FB0341A04248
:1028300072EB01033ABF044615460D46A61F45F14B
:10284000FF37B44275EB07033CBF0026374600F064
:10285000F1F8301A67EB0101012871F1000106DA85
:102860002046294602B0BDE8F04100F0EDB800F086
:10287000E1F8864267EB010100290ADB0021174BD2
:102880003246009316483B460191FFF7AFFE0130F8
:10289000E6D04FF0000C134A1349536A9F4204D804
:1028A000906AB042DCD29F42DAD10B68EFF310801D
:1028B00072B6D3E8CF8F5FF0010EB8F1000FF8D1F8
:1028C000C3E848EFB8F1000FF3D1BFF35F8F0B6897
:1028D000C3E88FCF80F3108820BFDEE7D920001037
:1028E0004815002000000B400C2A00202DE9F04381
:1028F00006460D4683B0EFF30584E4B23CB12D4BA0
:102900005A6AAA421CD2002003B0BDE8F0832A4FC5
:10291000D7F80C9097F80080484600F083F808F14B
:10292000040859F828301B1A301A65EB0101984247
:1029300071F1000110DB20BF1E4B5A6AAA42E2D39C
:1029400014BF012400249B6AB34234BF204644F0E4
:10295000010003B0BDE8F08300F06CF8864265EB3F
:102960000101002914DB154B3846CDE9003432460D
:102970002B46FFF73BFE011E0ADD0E4B5A6AAA42A8
:1029800016D39B6AB34211D30B48FFF793FEB6E709
:10299000084B5C6AAC42B6D3641B18BF01249B6A27
:1029A000B34234BF204644F00100ADE7AA42EBD168
:1029B00020BFE9E700000B4048150020D920001097
:1029C0000A4B10B4D0E900415A6A91420AD814BFA8
:1029D000012000209B6AA34228BF40F001005DF85F
:1029E000044B704700205DF8044B704700000B401B
:1029F00001460248C1E90023704700BFC129001009
:102A000010B4054B054C064AA04214BF1846581C8A
:102A10005DF8044BFEF782BF8424002000800B4049
:102A200064AE00100346416A0A46986A596A8A42AF
:102A3000FAD17047034B596A0A46986A596A91421B
:102A4000FAD1704700000B40074A536A9942FCD8FC
:102A5000994207D1044B02E05A6A914202D19A6A24
:102A60009042F9D8704700BF00000B4000EB400CCB
:102A70004FEA8C0C0CF1804C0CF5803CF0B51646FE
:102A8000DCF80420051FB2F5803F38BF4FF48032D8
:102A9000EDB238BFCCF80420012D2AD94FF40067DD
:102AA000254C0CF54052176054F82020B2B9DCF8E0
:102AB0000020012D82EA461202F0E0020CF5805659
:102AC00032602AD94FF4006144F820304FF480334B
:102AD0000CF500521160CCF80430F0BD6769B7FB0B
:102AE000F2FE0EF1010E0EEB4E0EBEF1030EFCD205
:102AF000DDE70129D2D103240CF540521460DCF843
:102B00000820D207FBD5DCF800200B4C82EA4612E5
:102B100002F0E0020CF5805632600122DCF8005031
:102B20004D4005F00305356002FA01F1DCF808209C
:102B30000A42FBD0C6E700BF88240020014B53F8AF
:102B4000200070478824002070B4039D04682D0382
:102B500045EA03451B4B002CB3FBF1F3B2FBF3F644
:102B60001FDB194A194B904214BF4FF480424FF4B7
:102B70000042174C1A6003F580531A60A36832EACA
:102B80000303FBD1212200F540530433016086602A
:102B90001A600268002AFCDA0822C5601A6070BC5C
:102BA0007047036803F03F038B42DAD18368C3F3B5
:102BB0000B03B342D5D1C36803F4EE23AB42D0D1AB
:102BC000EDE700BF001BB700008005400020024079
:102BD0000000024030B44FF080441C4B1C60E0B158
:102BE0001B4CA3F54053DC611A4C40F001004440FB
:102BF0001C62596298624FF080454FF0E061134BC0
:102C00001548164C1D60846019604AB930BC4FF0FD
:102C10000042A3F580531A607047114BD861EAE770
:102C20004FF47A7303FB02F2B2F1807F2ABF6FF098
:102C30007F4313461A464FF080410A4C08482360F0
:102C4000094B426030BC1960704700BF00B00D40B6
:102C5000D3C007B02D3FF84F00A00140F3FFFF01A4
:102C600000800D401C29002000A00D40012300EB36
:102C70004000800000F1804000F584104160036056
:102C8000704700BF002370B5DB8A04460D46002262
:102C900042E800F2520254BF1021042144F25220B3
:102CA000984786462B462246F446BDE870400A21E6
:102CB0004FF48170604700BF0023DB8A002242E8A6
:102CC00000F2520201D4102118470421184700BF16
:102CD00008B503460846191E02DB1AB140F0300061
:102CE000FFF7D0FF40F02000FAE700BF034AD2F818
:102CF0002838002BFBD0BFF35F8F704700000E40D9
:102D00000021044B044ABFF35F8F43F8041B934236
:102D1000F9D170470C080E402C080E4010B44FF447
:102D20008D704FF42A64064A064B07491460D06040
:102D300019605368002BFCDA5DF8044B704700BF44
:102D40000080044000A0044000B0FA00704700BFBB
:102D500008B50148FEF7CAFD88AE001038B5054C2D
:102D6000054DAC4204D254F8043B9847AC42FAD328
:102D700038BD00BF20AC001060AC001010B4074894
:102D8000074C084B084A094904601A608B6832EA0C
:102D90000303FBD15DF8044B704700BF00200240E5
:102DA0007F3BEFEF00300240F6FFF30300000240EC
:102DB000044BDB6CB3F5004F03D14FF48022024B80
:102DC000DA64704700001150002011504FF0E022EB
:102DD000044BD2F8881D0B43C2F8883D10EE300436
:102DE000704700BF030330006FF06041044B054A99
:102DF00019609368DB4333F06043FAD1704700BF3A
:102E0000003002400000024010B545F25320FFF7A9
:102E100053FFBDE8104003460420184710B545F2A3
:102E20005320FFF749FFBDE8104003460120184733
:102E3000FEF704BE10B5054B054C4FF488721846DA
:102E4000A16807F0CBFCA06010BD00BF000000200F
:102E500000ED00E0002370B52B4C82B0C4F8843044
:102E6000FFF75CFF0122294BDA63636C012BFCD175
:102E70000321264A244B11639C6B012CFCD10226B2
:102E8000052521460523224A22480096FFF75CFECD
:102E900021462B46204A21480095FFF755FE002287
:102EA000042031461E4BFFF7E1FD21462846002253
:102EB0001C4BFFF7DBFD0022082011461A4BFFF7E1
:102EC000D5FD002209201146174BFFF7CFFD002248
:102ED00006201146134BFFF7C9FD0022114B0720B6
:102EE0001146FFF7C3FD0420FFF728FE00240F4B17
:102EF000A3FB0035AD0CE0B229460134FFF7B6FE66
:102F0000062CF8D102B070BD000001400030014035
:102F1000002F685900000540008C8647008005405E
:102F2000001BB70080D1F008006CDC0283DE1B437D
:102F300086B003B451FC0804CDE9020151FC090438
:102F4000CDE9040151EC0A04CDE9060103BCF047C8
:102F5000BDE800504EEC00C4BDE800504EEC01C48A
:102F6000BDE800504EEC02C400BD000000B5FFF704
:102F7000DFFF02E010FE30F4F8D441EC100443EC23
:102F8000112400EE010410EE010480EE200451EC47
:102F90001004704700B5FFF7CBFF02E010FE30F4DD
:102FA000F8D441EC100443EC112400EE010410EEBF
:102FB000210480EE200451EC3004704700B5FFF787
:102FC000B7FF02E010FE30F4F8D410B541EC100465
:102FD00043EC112451EC040453EC0524A0FB024CF7
:102FE0005FF0000EE0FB03CEE1FB02CE4CEC204490
:102FF0000024E1FB03E444EC30E480EE200451ECD7
:103000005004BDE81040704700B5FFF791FF02E0A3
:1030100010FE30F4F8D441EC100443EC112451ECD0
:103020002104A0FB01126FEA820252FB100052FB46
:1030300012F252FB1000A0EBD07C53EC04245CFB9A
:1030400013F153EC1524A1FB022001FB030053EC08
:103050004424A2EB000050FB1CF24FEA111312EBC8
:10306000017043EBE27140EA515020EA915020F0A8
:10307000070053EC7524A0FB023C53EC752400FBC5
:1030800003CC01FB02CC53EC0424ACEB824C40EAB1
:103090005C70A0F1010041EC400480EE200451EC92
:1030A0007004704700B5FFF743FF02E010FE30F4F4
:1030B000F8D440EC700400EE010410EE210480EE20
:1030C000200451EC3004704700B5FFF731FF02E0F7
:1030D00010FE30F4F8D440EC600400EE010410EE71
:1030E000210480EE200451EC3004704700B5FFF756
:1030F0001FFF02E010FE30F4F8D441EC800400EE33
:10310000010410EE010480EE400410EE1304704739
:1031100000B5FFF70DFF02E010FE30F4F8D441ECEB
:10312000800400EE010410EE010480EE400410EE75
:103130003304704700B5FFF7FBFE02E010FE30F4E9
:10314000F8D441EC100443EC112400EE010410EE1D
:103150003004C0F30070704700B5FFF7E9FE02E0ED
:1031600010FE30F4F8D443EC102441EC110400EECE
:10317000010410EE30F48CBF01200020704700BF26
:1031800000B5FFF7D5FE02E010FE30F4F8D443ECB2
:10319000102441EC110400EE010410EE30F42CBFB9
:1031A00001200020704700BF00B5FFF7C1FE02E01C
:1031B00010FE30F4F8D441EC100443EC112400EE7E
:1031C000010410EE30F42CBF01200020704700BF36
:1031D00000B5FFF7ADFE02E010FE30F4F8D441EC8C
:1031E000100443EC112400EE010410EE30F48CBF07
:1031F00001200020704700BF10B5044606F032FFE2
:1032000028B10346034A2344934200D810BD024824
:10321000FEF76CFB0000082094AE001006F02ABFF9
:103220009A4238BF88547047704700BF2DE9F04F6D
:1032300083B09946DDE90DAB0F9B884611469A078E
:10324000074616D1DA453AD20C460D46ABEB0A06D4
:103250000E4422464B46414620200134B847B44232
:10326000F7D12946BAF1000F08D1204603B0BDE8D6
:10327000F08F0C46BAF1000F10D00E4655460C9B4D
:103280002E449A440191721B4B46013D41461AF867
:10329000010D3446B847002DF5D101990F9B9B07CE
:1032A000E3D5651AAB45E0D922464B46414620207E
:1032B0000135B8475D4504F10104F5D3D5E70C4667
:1032C000BAF1000FD9D1D0E72DE9F04F0F9FDDF80B
:1032D000248017F0020F0A9C9DF82CA00E9DDDE9BA
:1032E0000C9644D1F5BBB44241D207F0010B04F176
:1032F000FF3C4FF0300EC44404E00134A6420CF809
:1033000001EF01D9202CF8D1BBF1000F00F088802B
:10331000A5422CD904F1FF3C4FF0300EC44404E028
:103320000134AC420CF801EF21D0202CF8D117F079
:10333000100F0ED017F4806F54D1A64263D0A5426F
:1033400061D0B9F1100F50D0B9F1020F56D0202C36
:1033500029D12024CDE90B57CDE90984BDE8F04FF0
:10336000FFF764BF17F0010B34D1B442BFD317F09D
:10337000100F1ED017F4806FE3D1002CDDD1B9F10E
:10338000100F63D0B9F1020F77D0302488F80040D5
:103390000124BAF1000F11D17E0748D52B2608F879
:1033A00004600134D6E7264601344FF0300C08F8AB
:1033B00006C0202CCDD0BAF1000FEDD02D2608F894
:1033C00004600134CDE90B57CDE90984BDE8F04F25
:1033D000FFF72CBFBAF1000F30D0B44205F1FF3532
:1033E00085D395E7B9F1100FB3D1BE063BD5202C9C
:1033F000AFD0582608F804600134A8E7202CA8D0E4
:103400002646013407E0661EB9D0B9F1100F36D058
:10341000B9F1020FC9D14FF0620C08F806C096E767
:1034200017F0100FC5D017F4806F86D089E73E07DC
:1034300090D5202608F8046001348BE717F00C0FB4
:1034400000D0013DB442FFF452AF61E7BC0612D494
:10345000782488F80040302488F801400224BAF12A
:10346000000F99D0AAE7202C3FF473AF782608F814
:10347000046001346BE75824EBE76224E9E717F0B6
:10348000200FA4F1020C04D04FF0580E08F80CE005
:103490008BE74FF0780E08F80CE086E700B970472C
:1034A00001F052BB000000002DE9F04F97B09DEDF8
:1034B000207BDDE9225B0746884651EC170B249CF4
:1034C00099460C920B4602468DED047B0794FFF75C
:1034D00035FE002840F0F481DDE904014FF0FF32B1
:1034E0006FF48013FFF73CFE002840F01B81DDE9FC
:1034F00004014FF0FF32AC4BFFF76EFE002840F0A6
:10350000EE80DDE90401A4A3D3E90023FFF764FE04
:10351000002840F0D380DDE90401A1A3D3E9002312
:10352000FFF71EFE002840F0C980DDE904010022FB
:103530000023FFF715FE002840F0E88023460D9099
:1035400013F4806F08BF062530212B460EAAA5F183
:10355000200605E0013BB34202F8011B00F0938115
:10356000092BF7D81E46ED1ADDE90401FFF7C2FD6D
:103570008E4B044603EBC60393ED007B8DED087B79
:10358000FFF794FD02460B46DDE90401FFF706FD57
:10359000DDE90823FFF716FD02460B46CDE90A23B5
:1035A000FFF7BAFD8246FFF793FD02460B46DDE9C1
:1035B0000A01FFF7F3FC02460B46CDE90A2300227D
:1035C0007B4BFFF709FE002800F0FE800AF1010A9C
:1035D0005046FFF77DFD02460B46DDE90801FFF787
:1035E000D3FD10B14FF0000A0134002E00F0FD8031
:1035F000681E0EABDFF8CCC118440FE0ACFB0A210B
:10360000C90801EB8102AAEB42023032BAF1090F7C
:1036100000F8012F40F21C818A461D46202D05F13D
:10362000010306F1FF36E9D12025691E0EAB614882
:10363000194410E080FB0462C3EBA20303EB830296
:10364000A4EB420404F1300201351C4601F8012FBD
:10365000002B00F0EB80202D4FEAE473EAD1079BAA
:1036600003F00303012B18D1BBF1000F15D00D9B04
:10367000002B00F00A810BF1FF3BBBF1200F0CD9AE
:103680006B1E0EA930220B4405E001355D4503F8A1
:10369000012F80F0D180202DF7D1079B0EACCDE912
:1036A00002B341464B4638460C9A01950094FFF709
:1036B000BDFD8246504617B0BDE8F08F079B9DEDDB
:1036C000047BCDE923B341464B4638460C9A8DED39
:1036D000207B229517B0BDE8F04F00F045B9610797
:1036E00023464CBF042303234146219338464B46CF
:1036F000079A48BF304CCDE922B258BF2F4C0C9AE4
:10370000209417B0BDE8F04FFFF790BDDDE904232A
:1037100000200021FFF742FC0123CDE904010D93B5
:1037200023460DE723469C0740F0AA80BBF1040F17
:1037300040F2A6800C9B1D461C1F04EB0B0A2A4678
:103740004B46414620200135B847AA45F7D155469A
:103750001B4C261F14F8010D2A464B464146B8471C
:10376000B44205F10105F5D1079B0AF1040A980757
:10377000A0D50C9CAAEB04039B459BD952464B4613
:10378000414620200AF1010AB847AAEB04035B4531
:10379000F4D38FE7AFF300800000000065CDCD418A
:1037A0000000000065CDCDC1FFFFEF7F10B000101D
:1037B0000000E03F67666666E8AE0010F0AE0010FD
:1037C000FCAE0010CDCCCCCC0022DDE90A01634B6D
:1037D000FFF7C6FC00287FF408AFBAF1000F6AD1EA
:1037E0000AF1010A002E7FF403AF2046FFF75EFCCA
:1037F00002460B46DDE90401FFF7D0FB02460B460B
:10380000CDE904230022554BFFF7AAFC00287FF4E2
:103810000CAFDDE904010022504BFFF7DDFC00286E
:103820007FF403AF013424F00104FEE6079B03F0AC
:103830000303012B00F08280202D3FF42EAF0D9B5F
:103840007BB32D220DEB050383F83820013524E7E7
:10385000202B3FF4E9AE0EAA15441E44302204E0AA
:10386000202B05F8012F3FF4DFAE9E4203F1010348
:10387000F6D12E220DEB060383F83820751CD4E612
:10388000DDF830A063E720256EE6079B13F00C0FF0
:1038900050D00BF1FF3BAB453FF6F2AE202D3FF48D
:1038A000FCAE079B5A0701D52B22CBE71B077FF500
:1038B000F4AE2022C6E71AF0010F3FF496AE8FE770
:1038C000A60734D1BBF1030F31D90C9B1D46DC1E7A
:1038D00004EB0B0A2A464B46414620200135B847E7
:1038E0005545F7D155461E4CE61E14F8010D2A46E3
:1038F0004B464146B847A64205F10105F5D1079B65
:103900000AF1030A9D077FF5D5AE0C9CAAEB0403D0
:103910009B457FF6CFAE52464B46414620200AF1EA
:10392000010AB847AAEB04039B45F4D8C2E6DDF8C8
:1039300030A0D7E7AB453FF6A3AEAEE6BBF1000F34
:103940003FF47AAF0D9B002B9FD00BF1FF3B5D4501
:10395000FFF496AE202D7FF474AF9EE60000E03FAA
:10396000F7AE0010000000002DE9F04F9FB02A9E36
:10397000DDE92845074693460891099322462B46E0
:10398000204629460E96DDE92BA6FFF7D7FB002837
:1039900040F0BE80204629464FF0FF32784BFFF7BB
:1039A0001BFC002840F0B480204629464FF0FF322F
:1039B0006FF48013FFF7D4FB002840F0A980204665
:1039C000294600220023FFF7CBFB002840F0D581D9
:1039D000CDE90A45DDE90A239046994606F40062DE
:1039E00016F480630F92139340F0A18058EA090304
:1039F00040F0CA80002A40F0E38106230E9316F0BF
:103A00000202109240F0D4815346042B38BF0423A5
:103A10000C920422043B12920F9320462946002266
:103A20000023FFF79DFB002840F0F3819DED0A7B0A
:103A30000F9B5A4603930E9B8DED007B029326F459
:103A4000006304933846099B0899FFF72DFD024651
:103A500016F0200F099B08990CBF6520452002F144
:103A60000108B8470C9A129B16AC5D1E82EAE273FD
:103A7000A3EBE273D10F002622469946DFF804C17A
:103A800001E0202E10D0CE46ACFB0930C00800EB80
:103A90008003A9EB43033033BEF1090F814606F1E1
:103AA000010602F8013BECD80523002006930A2307
:103AB00005950094099D089C4246CDE90330CDE967
:103AC00001612B4621463846FFF7FEFB109A8046DF
:103AD000D2B1A0EB0B06B24516D90BEB06022B4672
:103AE000214620200136B847B245F6D80BF1FF3306
:103AF0005344CBF10102A3EB08034244924538BF83
:103B0000002308F10108984440461FB0BDE8F08F3B
:103B10005A463846CDE92845CDE92BA60E9C099B8F
:103B200008992A941FB0BDE8F04FFFF7BDBC58EAD2
:103B300009032BD1002A3FF462AF00230C930E9BA4
:103B40000C9A934200F3B9814FF0000820462946B1
:103B500000220023FFF704FB002840F013819DEDB5
:103B60000A7B26F4006646F480668DED287B5A4673
:103B70003846CDE92A8A099B08992C96D2E700BFDE
:103B8000FFFFEF7FCDCCCCCC06230E93C9F30A50B8
:103B9000A0F2FF30FFF78AFAC1A3D3E90023FFF7B1
:103BA00011FAC1A3D3E90023FFF7E4F9C9F313091C
:103BB000CDE90C0149F07F5140460022B24B41F45F
:103BC0004011FFF7EBF9A4A3D3E90023FFF7FAF9BB
:103BD00002460B46DDE90C01FFF7CCF9FFF78AFA44
:103BE0000C90FFF763FA9EA3D3E900238046894631
:103BF000FFF7E8F90022A54BFFF7BCF9FFF77AFAC7
:103C0000034649464046129397A3D3E90023FFF7A2
:103C1000D9F9804612988946FFF748FA94A3D3E968
:103C20000023FFF7CFF902460B4640464946FFF70F
:103C3000B5F902460B4680468946FFF7C3F942466E
:103C40004B46CDE9100140464946FFF793F9002263
:103C5000CDE91401DDE910018D4BFFF7D9F9002200
:103C60008C4BFFF787F902460B46DDE91001FFF7A1
:103C7000CFF90022884BFFF77DF902460B46DDE9BC
:103C80001001FFF7C5F942464B46804689460020A1
:103C90004FF08041FFF782F902460B464046494605
:103CA000FFF768F902460B46DDE91401FFF7B0F9AA
:103CB00000227A4BFFF75EF9129B002203F2FF3CD1
:103CC0004FEA0C53FFF77EF980468946DDE90A0189
:103CD00042464B46FFF744FA50B10C9B4046013B2D
:103CE00049460C9300226B4BFFF792F980468946B8
:103CF0000C9A43466332C62A06F0020210924946E5
:103D00000F9A2CD8002A5ED0042212920B433FF463
:103D100016AFDDE90A0158A3D3E90023FFF748FAFB
:103D200048B1DDE90A0156A3D3E90023FFF718FAE9
:103D300000287FF404AF0E9B002B50D0139A002A6A
:103D40007DD0013B0E93129B9A4505D9109B002B09
:103D500000F0AE800223109300230F9344E022BBB7
:103D6000BAF1050F4FD906F00203002B49D1052304
:103D70001293AAF105030F933AE005F100430A9468
:103D80000B9327E626F4006646F4806638462C96A8
:103D9000DDE90A67344607F100455A46CDE92A8A2B
:103DA000CDE92845099B0899BCE605221292ADE7AA
:103DB00000230222CDE90F3204220C9312922CE64A
:103DC0004FF00508C2E6BAF1040F1FD9109B002B73
:103DD00078D104231293AAF104030F9304E0129BF9
:103DE0009A4531D80E9B0F930C9B002B3FF415AED8
:103DF000DDE90A0142464B46FFF70AF9CDE90A011F
:103E00000BE60223109305231293F1E70423129388
:103E1000EAE7DDE90A45A0460F9B05F10049039357
:103E20000E9B5A46029326F4006304933846CDE96C
:103E30000089099B0899FFF737FB024608E6129BA9
:103E40009A4544D80F92CFE7109B8BB30E9B0F93EC
:103E500002231093C8E700BF61436F63A787D23F77
:103E600071A379094F930A401655B5BBB16B024057
:103E7000EF39FAFE422EE63F2D431CEBE2361A3FA5
:103E80000000000080842E410000F83F0000E03F69
:103E900000002C4000002440000018400000F03FCB
:103EA000FB799F501344D33FB3C8608B288AC63F29
:103EB000129BAAEB03030F9396E7A3EB020808F10A
:103EC000FF3843E604231293022310938CE7109BE0
:103ED000002BEDD002230F92109385E72DE9F04FD0
:103EE0009BB0249C954D0A94954CB1F1000A18BFE3
:103EF000834625601878934C914608BFA3460993E2
:103F0000002800F093824FF000080AE042464B463A
:103F1000514608F10108D847099B1878002800F09D
:103F2000CE80099B252803F101030993EED11C469D
:103F30000023224612F8010BA0F1200110290AD813
:103F4000DFE801F04009093C0909090909090938B4
:103F5000093409093000A0F130010929099440F21F
:103F60008A802A2800F0F08000252E2800F0968014
:103F70000026A0F1680112292DD8DFE811F04901CF
:103F80002C0043012C0038012C002C002C002C00AC
:103F90002C002C002C0027002C002C002C002C00C6
:103FA0002C002700144643F00103C2E7144643F0F7
:103FB0000203BEE7144643F00403BAE7144643F095
:103FC0001003B6E7144643F00803B2E709994878AE
:103FD00043F480730132672809927ED8242840F286
:103FE000C180A0F12502422A00F2BC80DFE812F075
:103FF0005001BA00BA00BA00BA00BA00BA00BA005A
:10400000BA00BA00BA00BA00BA00BA00BA00BA00E0
:10401000BA00BA00BA00BA00BA00BA00BA00BA00D0
:10402000BA00BA00BA00BA00BA00BA00BA00BA00C0
:10403000190137011901BA00BA00BA00BA00BA0072
:10404000BA00BA00BA00BA00BA00BA00BA00BA00A0
:10405000BA00BA00BA00BC01BA00BA00BA00BA008D
:10406000BA00BA00BA00BA00BA00BC015801BC01DB
:10407000190137011901002500E0013205EB850522
:1040800000EB45051078303DA0F130010929F4D945
:104090002E28099202F101027FF46AAF099943F4D4
:1040A000806348781146A0F13006092E40F2218144
:1040B0002A2800F02F8109920026013259E7444650
:1040C000C14501D809F1FF384B4642465146002010
:1040D000D84720461BB0BDE8F08FA0F16902D2B2EC
:1040E0000F2A3FD8012149F241079140394040F061
:1040F000F3800A2A3DD0072A34D10A9D55F8042BB3
:10410000002A00F0138143F0210012AB1F460B93ED
:1041100003E0202900F014811A4602F00F04234620
:10412000092C94BF303337330F2A07F8013B01F1D4
:1041300001014FEA1213ECD802E100BFDD3E00108E
:1041400014290020293200100A99099851F8045BBB
:104150004078002DCDE90921BCBF43F002036D4238
:10416000013202E742464B46514608F10108D84762
:10417000D2E60A99002E51F8047B18BF32463878EF
:1041800008BF4FF0FF32002800F07B83BC18A44624
:104190003A4604E012F8014F002C00F03F819445AC
:1041A000F8D16446E41B5A0540F12281B44228BF8D
:1041B000344613F0020300F088820223CDE90A514D
:1041C00042461D46464408E04B465146D84717F83C
:1041D000010F08F1010810B142464645F4D12B46C3
:1041E0000B990A9D002B40F041810A9194E60999B0
:1041F00048786C287FF4ECAE0A46887843F4407324
:104200000332E8E6099943F4007348780132E2E6A4
:1042100009994878682800F0038143F0800301324F
:10422000D9E6672800F0D980472800F0DC804528CF
:1042300000F0DB80CDE903530A9B0296073323F09D
:1042400007031C464246F4E802674B46514658466F
:10425000CDE900670A94FFF787FB80465CE64628B5
:1042600008BF43F02003CDE903530A9B02960733AE
:1042700023F007031C464246F4E802674B465146CA
:104280005846CDE900670A94FFF70EF9804643E6E9
:1042900042464B465146252008F10108D8473BE6E7
:1042A0000A9A990702F1040408F1010640F1C68058
:1042B00010784B4642465146D847012D88BFA84446
:1042C00040F2BD8132464B46514620200136D84748
:1042D0004645F7D10A941FE66F2800F0818040F22E
:1042E0004882782800F090810A2723F01003BC460A
:1042F00041E0002606EB860600EB4600A0F1300602
:1043000011F8010FA0F13002092AF3D90A460991E8
:1043100001322EE6DDE9092151F8046B9078023272
:1043200009920A91013226EAE67622E623F010008D
:1043300013F4806240F021003FF4E7AE12AB0B9320
:104340000B9B069000930823102005930023424600
:10435000CDE9023001914B46514658460496FEF78E
:10436000B3FF0A958046D7E5582862D0622840F00E
:104370008F800227BC4613F4806000F0DD8023F0BC
:104380000D0313F4007240F081810A990F1D13F49C
:10439000807140F037825C060A9A40F13B811278C6
:1043A000002A40F04E8123F01003002800F04981DC
:1043B000114612AA0B92CDE90553CDE903C601912E
:1043C0000B9B4246009300235146029358464B46AE
:1043D000FEF77AFF0A9780469EE543F4006329E7DB
:1043E0000827BC46C7E743F4006343F0200321E7F6
:1043F00013F0020300F08E8102230A951E460D463B
:1044000042464B465146D84717F8010F08F10108BC
:104410000028F5D1294633460A9DE3E6D41BC2E6BF
:104420000A46887843F0C0030332D4E50446804648
:1044300046E6102743F02003BC469CE7012D40F2DE
:10444000F880464608F1FF372F4432464B46514626
:1044500020200136D847BE42F7D10A9B3246187851
:1044600051464B46D847A8440A9455E54646A542CE
:104470007FF6BBAEA844A8EB04080C4632464B4678
:10448000514620200136D8474645F7D12146ACE6B3
:1044900013F4806200F0BB804FF4806223F0110CB3
:1044A0001CF400770A9B4AD11CF4807003F10404C9
:1044B00040F034811CF0400F40F0A3801CF0800FCE
:1044C00000F0D381B3F9001081EAE177A7EBE1773F
:1044D000BFB2CB0F002900F056813A4612A90F4611
:1044E000DFF8D8E30B910A930C9501E020280FD058
:1044F0001546AEFB0213DB0803EB8301A2EB41017F
:104500003031092D1A4600F1010007F8011BEDD8E2
:104510000A9B0C9DCDE9055CCDE9010304960B9B3C
:10452000424600930A235146039358464B46FEF7F2
:10453000CBFE0A948046EFE423F00C0321E7073317
:1045400023F00703194608465B6850F8081BDF0F85
:104550000A9051EA030062D1002A40F09F8113467D
:10456000114612AACDE90C7500201546CDE90E685A
:10457000DFF848E30B9201E020282DD05A1842F1D1
:104580000002AEFB027828F0030707EB9807D21B66
:104590001E469B1A61F100070C464FF0CC3101FB1F
:1045A00003F10EFB0711A3FB0E731944052307F05B
:1045B0000108A8FB03389B180A2E03F130034FEAC9
:1045C000570774F1000405F8013B00F1010047EAC8
:1045D000C1734FEA5101CFD2DDE90C75DDE90E68F8
:1045E0000B9B424600930A23CDE9055CCDE9010708
:1045F000049603934B4651465846FEF765FE8046A7
:104600008AE419780F4664E71027BC46B3E623F026
:10461000100C45E71C064CBF12881268C0E60A461B
:10462000191E01DB13469CE75242134661EB410120
:1046300097E713465146187842464B46D847B0464E
:1046400048E613F0200F14BF4120612012ACA646AB
:104650000B940A93A0F10A040C9502E0202912D0D1
:104660002A46B2FBFCF50CFB1520C3B2092803F166
:1046700030008ABF1B19C3B2DBB262450EF8013BA2
:1046800001F10101EAD20A9B0C9D94E60A9A0732D5
:1046900022F00702516852F8084B8E460A9254EAFB
:1046A000010276D123F01003002872D000221146B7
:1046B00012AA0B92CDE905530B9B424600930023AF
:1046C000CDE903C60191029394E7A54298BF013456
:1046D0007FF674AD4FF48063CDE90A7505EB0802EF
:1046E0001F460D46141B42464B465146202008F1FA
:1046F0000108D847A045F6D13B460A9F294638789D
:104700000B9D6C1C00283FF470AD002B3FF475AE80
:10471000002353E5A542DFD801346EE61968CB0FBC
:10472000002900F0A88081EAE172A2EBE17212A9EF
:104730000846DFF888E10B910A930C9501E0202FE1
:104740000FD01546AEFB0213DB0803EB8301A2EB8F
:1047500041013031092D1A4607F1010700F8011B0C
:10476000EDD80A9B0C9DCDE9055CCDE9017304965B
:10477000D5E6692823F0100C40F08C8013F4806299
:104780003FF48EAE88E6002A3FF4A8AE12AA0B9240
:10479000C0E613F0200F14BF41226122002012A9AD
:1047A0000A3ACDE90E68CDE90C35CDF844B006469D
:1047B0008846754693460B91CDF840C003E0202E05
:1047C00017D004460D4629463A460023204606F0F7
:1047D00007FAD2B2092A02F1300388BF02EB0B03B9
:1047E000BC42DBB275F1000508F8013B06F1010699
:1047F000E5D23146DDE90C35DDE910CBDDF83C8052
:104800000E9E57E70A99096851B923F0100338B191
:1048100012A90B91CDE90553CDE903C60192CFE56D
:1048200013F0200F14BF4120612012ACA6460B9458
:104830000A93A0F10A040C9502E0202A12D029461E
:10484000B1FBFCF50CFB1510C3B2092803F13000D5
:104850008ABF1B19C3B2DBB261450EF8013B02F1FE
:104860000102EAD20A9B0C9DD4E7196881EAE1773C
:10487000A7EBE1772DE6002A3FF459AF12AA0B927D
:1048800071E713F480640DD013F0020412D00446D3
:104890004646ECE50A276346BC466CE512AB0020B1
:1048A0000B939DE613F002037FF4E0AD002D7FF43F
:1048B00013AF9AE4002D7FF40DAF96E4CDCCCCCCB1
:1048C00084460CB410B584B006AC54F8043B0A46D8
:1048D0000094614604480394FFF700FB04B0BDE870
:1048E000104002B0704700BF2132001010B5094BD4
:1048F00084B01C684CB1034600914FF0FF3203A90D
:104900000548A047012004B010BD00F05FF9204623
:1049100004B010BD142900209D34001000BEFDE736
:10492000074A0346106838B1064903448B428CBFDE
:104930004FF0FF3013607047034908461160F3E7FA
:104940001025002000000820082B002008B5FFF7E4
:10495000E5FF00BF38B5064C064DFEF7FFF9AC4247
:1049600004D254F8043B9847AC42FAD338BD00BF98
:1049700060AC00106CAC0010036808461146184784
:104980002DE9F0411546427D07468846002A46D06B
:10499000002D1DDD0B780A2B23D0012D4FF0000CCC
:1049A00018D04646012416F8012F21460A2A04F1A0
:1049B000010422D0A542F6D165450BDC08EB0503C6
:1049C00013F8013CA3F10D03B3FA83F35B093B75C4
:1049D000BDE8F0813B68A5EB0C0108EB0C009847A3
:1049E000ECE7037D002BD8D1036802210F489847DC
:1049F000012DE3D04FF0010CD3E716F8013C0D2B4D
:104A0000D8D08C4508EB0C00A1EB0C0101DA3B6817
:104A10009847022105483B689847A446CAE72946BB
:104A200040463B68BDE8F041184700BF60B0001049
:104A30002DE9F04782B00D4691461C460646FDF72B
:104A4000F9FF4FF0FF3C6FF000472E4A821841F10A
:104A50000003944577EB03013CBF62463B462A487E
:104A600006F0CEF86B1C804640D00CB3274F284B85
:104A70001C68B4B1B9F1000F1CD1DFF89C9001E0C3
:104A8000246974B12368002BFAD0D9F800300BB137
:104A90009C42F5D120462A463146B8472469002C6D
:104AA000F0D1B8F1000F26D1284602B0BDE8F0875A
:104AB000184FDCE74FF00A0ADFF85C9002E0246947
:104AC000002CEED02368002BF9D0D9F800300BB1C0
:104AD000A342F4D12A4631462046B8470122204657
:104AE0000DF107018DF807A0B847E8E7304605F05B
:104AF000EBFE0546B9E7044806F076F8284602B012
:104B0000BDE8F08740420F00001B002081490010E3
:104B1000F8240020794900100C250020084A136869
:104B200023B90AE003F110021B6933B18342F9D1C2
:104B300029B9186910601961704701B11060704798
:104B4000F824002000F06EBAF0B583B006468DF868
:104B50000700FDF76FFF4FF0FF356FF00044174A75
:104B6000821841F10003954274EB03013CBF2346D8
:104B70002A46134806F044F8124B07461C689CB1BD
:104B8000114D01E024697CB12368002BFAD02B6819
:104B90000BB19C42F6D1204601220DF10701FFF72F
:104BA000EFFE2469002CEFD117B9304603B0F0BDF9
:104BB000034806F019F8304603B0F0BD40420F003C
:104BC000001B0020F82400200C25002038B50446E6
:104BD00005F07AFE012305461A4620462946FFF7CE
:104BE00027FF084B1C682CB163682BB198472469D8
:104BF000002CF9D1284638BD2469002CF4D1284670
:104C000038BD00BFF8240020704700BF0022014BD0
:104C10001A707047042B00204B79FF2B0BD1887939
:104C200048B9CB79012B07D1082A05D9034B8A78DB
:104C300009201A7070470020704700BF042B002025
:104C400001207047012901D00120704708B5104BA1
:104C500091881B78994201D0002008BD5378012B20
:104C600008D0022BF8D1002164220846FDF7B2FFDC
:104C7000012008BD5188CB0548BF480AC1F3402236
:104C800058BF4FF0FF3001F07F01FEF721F800BF61
:104C9000042B0020004870472CB10010012907D1D7
:104CA0005378012B02D19388072B03D00020704743
:104CB000012070471146A623014A01F039BA00BF0E
:104CC00084B000100346012201481A70704700BFEB
:104CD00064B0001008B50B68B3F5966F00D008BD3E
:104CE00000224FF0FF301146FDF7F2FF024A034B5E
:104CF00010601960704700BF782400207C240020D9
:104D0000184B70B51A68002A28D0EFF3108172B6DC
:104D1000D2E8CF4F0120002CFAD1C2E8440F002C7A
:104D2000F6D1BFF35F8F00220F4C186859602270D4
:104D3000C0E88F2F81F31088002400250B4E3078B7
:104D4000FCF7BEFE20B9002400252046294670BD90
:104D50003078FCF7C5FE2046294670BD4FF47A74C2
:104D60000025EBE73C290020062B0020052B002026
:104D7000014B1878FCF7B4BE052B002038B504466B
:104D800000200D4601F004FBA8B3002001F016FB43
:104D900088B3FDF74FFE4FF0FF3E6FF0004C174A0F
:104DA000821841F1000396457CEB03013CBF72463B
:104DB0006346134805F024FFE8B1002001F0E8FA4B
:104DC00058B900214FF0FF3000F00AFD6FF00204E7
:104DD0000B4805F009FF204638BD002001F0EEFA2F
:104DE0000028EED021462A46002001F0F1FA0446C0
:104DF0000028EDD1EAE76FF00204ECE740420F0033
:104E0000102A002008B5FDF715FE4FF0FF3E6FF0A9
:104E1000004C0F4A821841F1000396457CEB0301D8
:104E20003CBF724663460B4805F0EAFE70B14FF096
:104E3000FF30002100F0D4FC002001F011FB00281D
:104E4000F5D1BDE80840034805F0CEBE08BD00BF5F
:104E500040420F00102A00202DE9F84380460F46FB
:104E6000FDF7E8FD4FF0FF356FF00044334A82183C
:104E700041F10003954274EB03013CBF2A462346EF
:104E80002F4805F0BDFE08B9BDE8F883002001F009
:104E90007FFA002847D0002F40DD0025DFF8A890DA
:104EA000284E13E02246002001F020FB002104469A
:104EB0004FF0FF3000F094FC002001F0D1FAFDF734
:104EC000B9FDC9E900012544AF4227DD002001F00A
:104ED0002DFB7C1B8442A8BF044608EB0501002C77
:104EE000E0D121464FF0FF3000F07AFC204601F07F
:104EF000B7FA204601F04CFA80B1204601F016FBCB
:104F00000028E1D1FDF796FDD9F80030D9F804204A
:104F10009B1942F1000283428A41D5D20848BDE87C
:104F2000F84305F061BE00200021074BC3E90001F2
:104F3000BDE8F843024805F057BE00BF40420F00ED
:104F4000102A002020A10700881C002030B5002175
:104F500085B02E4805F060FEF0B92D4B1A68CAB135
:104F6000EFF3108172B6D2E8CF5F0124002DFAD1A1
:104F7000C2E8454F002DF6D1BFF35F8F254C1D6869
:104F800022785960D3B201222270C5E88F0F81F3D5
:104F90001088CBB105B030BD00214FF0FF3000F0DC
:104FA0001FFC002001F00AFA0446184805F01CFE18
:104FB000002CEFD0184B1B68002BEBD0174A106861
:104FC00005B0BDE830401847FDF79EFA0446FDF7EE
:104FD00031FD4FF0FF3C6FF0004510F57A7241F162
:104FE0000003944575EB030138BF2B464FF00001D9
:104FF0004FF0010520460A4C38BF6246CDE9011545
:105000000094FDF785FA05B030BD00BF102A0020DE
:105010003C290020062B0020782400207C2400203E
:10502000014D00104FF0504330B585B01C68FDF7BE
:105030006BFAFDF77FFBA04202D0002005B030BD27
:1050400000212A4B08461B7801F038FD28480368E8
:10505000002B47D00120FCF7DBFF0346254C2649F7
:10506000C0B22370FCF758FD20780121FCF712FD37
:105070000E20FCF741FD40BB204B0125C3E9000099
:10508000FDF742FA0446FDF7D5FC4FF0FF3E6FF006
:10509000004C10F57A7241F1000396457CEB030158
:1050A0004FF000012046164C3CBF72466346CDE9E6
:1050B00001150094FDF72CFA0028BEDB01211148F0
:1050C000FFF72CFD012005B030BD0120FCF79EFC50
:1050D00001460A48FCF7F8FF00220E200A49FCF7B7
:1050E0004BFDEBE7FCF7D4FFB4E700BF58B200106C
:1050F000102A0020052B00204D4F00103C290020D5
:10510000014D001060150020714D001000487047DF
:10511000C8B100100048704774B1001038B5184B82
:1051200004461A780AB344B940F209424FF4417375
:10513000144D6A8013482B8038BD052C1DD8124BA6
:10514000104D53F8241028460023013903E0132B97
:1051500020F8022F0ED011F8012F0133DBB2002A04
:10516000F5D15B0043F44073E4E71121184600F0E9
:1051700025F8D8E74FF44A73DCE7002038BD00BFBC
:105180001C2A0020D02400205CB1001000B545F29C
:1051900047308BB0FDF790FD01220346092101A89D
:1051A0009847DDE90332044912BA1BBAC1E900236A
:1051B0000BB05DF804FB00BFFC290020012901F1C0
:1051C000FF3300F0B3805D490A784FEA121C9F2A32
:1051D0008CBF0CF1370C0CF1300C012B80F800C0A7
:1051E00000F0A78002F00F02092A8CBF373230325C
:1051F000022B427000F09D804A784FEA121C9F2AD1
:105200008CBF0CF1370C0CF1300C032B80F802C072
:1052100000F08F8002F00F02092A8CBF3732303243
:10522000042BC27000F085808A784FEA121C9F2AF6
:105230008CBF0CF1370C0CF1300C052B80F804C03E
:1052400077D002F00F02092A8CBF37323032062B9A
:1052500042716ED0CA784FEA121C9F2A8CBF0CF1A3
:10526000370C0CF1300C072B80F806C061D002F02F
:105270000F02092A8CBF37323032082BC27158D046
:105280000A794FEA121C9F2A8CBF0CF1370C0CF1E3
:10529000300C092B80F808C04BD002F00F02092A0D
:1052A0008CBF373230320A2B427242D04A794FEAF1
:1052B000121C9F2A8CBF0CF1370C0CF1300C0B2BFD
:1052C00080F80AC035D002F00F02092A8CBF3732AD
:1052D00030320C2BC2722CD08A794FEA121C9F2AD2
:1052E0008CBF0CF1370C0CF1300C0D2B80F80CC07E
:1052F0001FD002F00F02092A8CBF373230320E2B3A
:10530000427316D0CA7911099F2A8CBF37313031C8
:105310000F2B81730DD002F00F02092A94BF303297
:105320003732102BC27318BF103002D00023037025
:105330007047184400230370704700BFFC29002009
:1053400070B500F02DF90C234026194CFF22A367FD
:105350000E201849FCF710FC32460021164805F0D3
:1053600059F90125002380211348144A41844570CE
:105370000683068782604360136042F8043C80F82D
:10538000213080F83B3043620D4B4FF00056C36034
:10539000C362803B836205F037FC4FF480320949D9
:1053A000094B25642846E664C4F89010DA6470BDA1
:1053B000000011509D03002014250020840010508F
:1053C0000001105010D001000020115001210E20CA
:1053D000FCF760BB00220248114600F001B900BF93
:1053E00034250020044B197021B14FF40032034BD7
:1053F000C3F89020704700BFFF2A00200020115002
:105400000B785B0602D14B78052B00D070474B8898
:10541000014ADBB21360704700001150CB782DE9D0
:10542000F04103F0030EBEF1010FC3F301005BD0A6
:10543000002791F802C0344C0CF07F025600898896
:1054400006EBDC1304EB43134FEADC15D876C1F30B
:105450000A0185F0010083F802C019835870DF70DB
:10546000D3008DBB2948043304EB821C03EB0008F6
:10547000CCF808801F5082B3254BD2001344CCF8DF
:105480000430244B3F311A6821F03F01BEF1020F76
:1054900008BF4900114419601F4B771904EB4717E7
:1054A0009942FA602BD82E4404EB4613D97E82F041
:1054B000A04282F480125B6842EA816242F00042BC
:1054C0001A600120BDE8F081104804EB821C0344FF
:1054D000CCF8283040F832704AB900220F4904EB6A
:1054E0004513D9605A60ECE70020BDE8F081D20096
:1054F00002F1A04202F58012CCF82420C1E7FDF7AA
:1055000027FCFA68CFE700BF142500208000105068
:105510000400105020290020FF0F105000011050EF
:1055200005F072BB8C4608B5114607481A460CF0C8
:105530007F034FEADC1C0CEB430C00EB4C1000F03B
:105540004FF8012008BD00BF1425002011F07F0294
:1055500005D100290CBF02200120064B9866C9091D
:10556000054B01EB420003EB40104FF400620021B9
:1055700005F042BB002011501425002011F07F03DC
:1055800000D17047002205485B0003EBD11300EB0C
:1055900043106FF40061C27005F02EBB142500208B
:1055A0004FF0805209480A4908B50A4B02600A6068
:1055B0009968C94311F08051FAD14FF480520648DE
:1055C00005F028F80922054B5A6708BD0020024063
:1055D0000030024000000240000010500000115056
:1055E00000234FF0010C10B580F81AC08282C382EC
:1055F0000161044605F00CFB20B14FF40032074B6B
:10560000C3F89020204605F0F3FA10B10123237768
:1056100010BD2046BDE8104005F0DABA0020115058
:105620002DE9F04100241D4E054623463278DFF86F
:1056300078801B4F0DE03B6813EB441324D0DB68EC
:105640002846984732780134E4B2511CA1422346DF
:1056500006DBA242A3EB0203EDD808EB4313EEE70F
:10566000542200210F4804F0D5FF4FF0FF330D48BE
:105670002022041D4360C4E90133E360FF21BDE83B
:10568000F041143004F0C6BF4FF0E023D3F8F03DF2
:10569000DB0700D500BEBDE8F08100BFFE2A002078
:1056A000B81E002088200020DCB10010704700BF29
:1056B000704700BF0020704700207047704700BF50
:1056C000704700BF704700BF704700BF024B58785B
:1056D000003818BF0120704788200020024B18783E
:1056E000C0F38000704700BF882000202DE9F047FC
:1056F000DFF8E4A09AF80030FF2B56D10E460029BF
:105700003ED0002154220746294804F083FF00229E
:10571000284C294B20461A70FCF7BAFC274B284826
:105720001C60284CFCF7C2FC204601F0ABFD264A69
:10573000264B146023B12648FFF7C4FA254B1860A6
:105740000024234D23462A78DFF89090DFF88480E8
:105750000EE0D8F8003013EB441311D05B687BB136
:1057600098472A780134E4B2511CA142234611DB48
:10577000A242EED89B1A09EB43135B68002BEFD1D2
:105780004FF0E023D3F8F03DDB0700D500BE00204A
:10579000BDE8F087314638468AF80070FFF7D0FD43
:1057A0000028EDD03846FFF711FE0120BDE8F08754
:1057B0008820002080200020002B0020DC200020FA
:1057C0008C15002078150020E0200020C54C00102A
:1057D000FE2A0020B81E002094150020DCB1001025
:1057E0002DE9F04FDFF8C8928BB099F80030FF2B0D
:1057F00000F0F180A84CA94DDFF8B0A2DFF8B4B2F8
:1058000026687369EFF3108272B6D3E8CF0F0121D7
:105810000028FAD1C3E8401F0028F6D1BFF35F8FFC
:10582000B261304607A901F077FB00237269C2E834
:105830008F3FB36983F31088002800F0CC809DF877
:105840001D30013B072B00F27D83DFE803F0A7B199
:10585000959D8E350A04089B002BD1D00998984756
:10586000CEE79DF8201001F07F0605EB460000EB27
:10587000D11090F8343023F0010380F8343090F8E0
:10588000343023F0040380F83430002E00F0A6807A
:10589000037D9AF80020934280F09380804A12683A
:1058A00012EB431300F090809E699DF82120099B24
:1058B0009DF81C00B047A3E79BF80030002B00F0D8
:1058C00083809BF80030013BDBB28BF800309BF803
:1058D000003003F0FF00002B92D1704F9DF81C8028
:1058E0003B7843F001033B7097F8343060F30003DA
:1058F00087F8343097F8343060F3820387F8343017
:1059000097F8353060F3000387F8353097F8353075
:1059100060F3820387F8353000F06CFC9DF820308E
:1059200003F06002602A6CD0402A7CD003F01F0391
:10593000012B00F0C180022B00F08180002B60D190
:10594000202A00F0E981002A5BD19DF82130092B43
:1059500057D8DFE813F0B001A2015600C10156008C
:1059600095016B0156006001F4002B78D9077FF593
:1059700047AFFFF7A9FE43E7EB78DA077FF540AFC3
:105980000898FFF795FE3BE72B78D8077FF538AFEF
:105990002878C0F3C000FFF795FE31E79DF81C00A2
:1059A000FFF73EFE00F01CFC9DF82030AB7027E7AF
:1059B0009DF81C00FFF734FE00F012FCFFF780FE9C
:1059C0001EE7501C984211DA4FF0E023D3F8F03D67
:1059D000DC0700D500BE0BB0BDE8F08F099B9DF839
:1059E00021209DF81C0000F019FC09E79B1A2D4AA4
:1059F00002EB431358E7FFF78DFB0246002840F007
:105A000082814FF0E023D3F8F03DDE0700D500BEE1
:105A10009DF81C000021FFF799FD80219DF81C00D6
:105A2000FFF794FDECE6204800F0E4FB012140463E
:105A300008AAFFF733F900287FF4E2AEE8E79DF803
:105A4000241011F0700FDCD101F07F0607EB460047
:105A5000164B00EBD1101B78007D76000196984222
:105A60004FEAD116009659D35E1C8642C0F2668179
:105A7000C01A0C4B03EB4016002A00F063817069DA
:105A800000F0B8FB01214046736908AA9847002836
:105A90007FF4B6AEBCE700BFE020002088200020E5
:105AA000B81E0020DCB100109D4C0010FE2A002022
:105AB00094150020002B00209DF824300F2BA7D830
:105AC000AE4A3B441B791278934232D3511C99421F
:105AD0009EDBAB4E9B1A06EB4316706900F08AFB07
